{
  "transactions": [
    {
      "hash": null,
      "transactionType": "CALL",
      "contractName": "MyToken",
      "contractAddress": "0xf96b35b3366d5459cdf7462bcd754d8cc5faa454",
      "function": "approve(address,uint256)",
      "arguments": [
        "0xFBb0621E0B23b5478B630BD55a5f21f67730B0F1",
        "100000000000000000000"
      ],
      "transaction": {
        "from": "0x1a2115173c31fa8e6a598a8a40671df4c2c99680",
        "to": "0xf96b35b3366d5459cdf7462bcd754d8cc5faa454",
        "gas": "0x91e5",
        "value": "0x0",
        "input": "0x095ea7b3000000000000000000000000fbb0621e0b23b5478b630bd55a5f21f67730b0f10000000000000000000000000000000000000000000000056bc75e2d63100000",
        "nonce": "0x9",
        "chainId": "0xaa36a7"
      },
      "additionalContracts": [],
      "isFixedGasLimit": false
    },
    {
      "hash": null,
      "transactionType": "CALL",
      "contractName": null,
      "contractAddress": "0xfbb0621e0b23b5478b630bd55a5f21f67730b0f1",
      "function": "bridgeERC20To(address,address,address,uint256,uint32,bytes)",
      "arguments": [
        "0xf96b35b3366d5459cDf7462bcd754D8CC5faa454",
        "0xE6Df762aBb5990d11872409db6A80904cA1e35D8",
        "0x1A2115173c31Fa8E6a598a8a40671Df4c2C99680",
        "100000000000000000000",
        "1000000",
        "0x"
      ],
      "transaction": {
        "from": "0x1a2115173c31fa8e6a598a8a40671df4c2c99680",
        "to": "0xfbb0621e0b23b5478b630bd55a5f21f67730b0f1",
        "gas": "0x1e90fd",
        "value": "0x0",
        "input": "0x540abf73000000000000000000000000f96b35b3366d5459cdf7462bcd754d8cc5faa454000000000000000000000000e6df762abb5990d11872409db6a80904ca1e35d80000000000000000000000001a2115173c31fa8e6a598a8a40671df4c2c996800000000000000000000000000000000000000000000000056bc75e2d6310000000000000000000000000000000000000000000000000000000000000000f424000000000000000000000000000000000000000000000000000000000000000c00000000000000000000000000000000000000000000000000000000000000000",
        "nonce": "0xa",
        "chainId": "0xaa36a7"
      },
      "additionalContracts": [],
      "isFixedGasLimit": false
    }
  ],
  "receipts": [],
  "libraries": [],
  "pending": [],
  "returns": {},
  "timestamp": 1766456240469,
  "chain": 11155111,
  "commit": null
}