{
  "transactions": [
    {
      "hash": "0xf9e02f0e00c15d6be4838ad4295e2287f645537fbac524797c2dd47b952d3cb3",
      "transactionType": "CALL",
      "contractName": null,
      "contractAddress": "0xf96b35b3366d5459cdf7462bcd754d8cc5faa454",
      "function": "approve(address,uint256)",
      "arguments": [
        "0xFBb0621E0B23b5478B630BD55a5f21f67730B0F1",
        "1000000000000000000000"
      ],
      "transaction": {
        "from": "0x1a2115173c31fa8e6a598a8a40671df4c2c99680",
        "to": "0xf96b35b3366d5459cdf7462bcd754d8cc5faa454",
        "gas": "0xfd42",
        "value": "0x0",
        "input": "0x095ea7b3000000000000000000000000fbb0621e0b23b5478b630bd55a5f21f67730b0f100000000000000000000000000000000000000000000003635c9adc5dea00000",
        "nonce": "0x4",
        "chainId": "0xaa36a7"
      },
      "additionalContracts": [],
      "isFixedGasLimit": false
    },
    {
      "hash": "0x95a17edc3af8ed01f8adab896ec1cef25c1c2435866e26c2faaf2f256767026b",
      "transactionType": "CALL",
      "contractName": null,
      "contractAddress": "0xfbb0621e0b23b5478b630bd55a5f21f67730b0f1",
      "function": "bridgeERC20To(address,address,address,uint256,uint32,bytes)",
      "arguments": [
        "0xf96b35b3366d5459cDf7462bcd754D8CC5faa454",
        "0xE6Df762aBb5990d11872409db6A80904cA1e35D8",
        "0x1804c8AB1F12E6bbf3894d4083f33e07309d1f38",
        "1000000000000000000000",
        "200000",
        "0x"
      ],
      "transaction": {
        "from": "0x1a2115173c31fa8e6a598a8a40671df4c2c99680",
        "to": "0xfbb0621e0b23b5478b630bd55a5f21f67730b0f1",
        "gas": "0xefdcc",
        "value": "0x0",
        "input": "0x540abf73000000000000000000000000f96b35b3366d5459cdf7462bcd754d8cc5faa454000000000000000000000000e6df762abb5990d11872409db6a80904ca1e35d80000000000000000000000001804c8ab1f12e6bbf3894d4083f33e07309d1f3800000000000000000000000000000000000000000000003635c9adc5dea000000000000000000000000000000000000000000000000000000000000000030d4000000000000000000000000000000000000000000000000000000000000000c00000000000000000000000000000000000000000000000000000000000000000",
        "nonce": "0x5",
        "chainId": "0xaa36a7"
      },
      "additionalContracts": [],
      "isFixedGasLimit": false
    }
  ],
  "receipts": [
    {
      "status": "0x1",
      "cumulativeGasUsed": "0x1175f5d",
      "logs": [
        {
          "address": "0xf96b35b3366d5459cdf7462bcd754d8cc5faa454",
          "topics": [
            "0x8c5be1e5ebec7d5bd14f71427d1e84f3dd0314c0f7b2291e5b200ac8c7c3b925",
            "0x0000000000000000000000001a2115173c31fa8e6a598a8a40671df4c2c99680",
            "0x000000000000000000000000fbb0621e0b23b5478b630bd55a5f21f67730b0f1"
          ],
          "data": "0x00000000000000000000000000000000000000000000003635c9adc5dea00000",
          "blockHash": "0x6e159d16d719e125f4b97d400591ca630283dd6ad3294d26a35077371b209d23",
          "blockNumber": "0x96ebec",
          "blockTimestamp": "0x6948d2a8",
          "transactionHash": "0xf9e02f0e00c15d6be4838ad4295e2287f645537fbac524797c2dd47b952d3cb3",
          "transactionIndex": "0x63",
          "logIndex": "0x119",
          "removed": false
        }
      ],
      "logsBloom": "0x00000000000000000000000000000000000000000000000000000000000000000000000800000000000000000000000000000000000040000000000000200000000000000000000800000000000000000000000000000000000000000000000000000000000000001000000000000000000000000000000000000004000000000000000000001000000000000000000000000000000000000000000000000000020000000000000000000000000000400000000000000000000000000000000000000000000040000000000000000000000000000000000000000000000000000010000080000000000000000000000000000000000000000000000000000000",
      "type": "0x2",
      "transactionHash": "0xf9e02f0e00c15d6be4838ad4295e2287f645537fbac524797c2dd47b952d3cb3",
      "transactionIndex": "0x63",
      "blockHash": "0x6e159d16d719e125f4b97d400591ca630283dd6ad3294d26a35077371b209d23",
      "blockNumber": "0x96ebec",
      "gasUsed": "0xb75c",
      "effectiveGasPrice": "0xf424f",
      "from": "0x1a2115173c31fa8e6a598a8a40671df4c2c99680",
      "to": "0xf96b35b3366d5459cdf7462bcd754d8cc5faa454",
      "contractAddress": null
    },
    {
      "status": "0x1",
      "cumulativeGasUsed": "0x1219f80",
      "logs": [
        {
          "address": "0xf96b35b3366d5459cdf7462bcd754d8cc5faa454",
          "topics": [
            "0xddf252ad1be2c89b69c2b068fc378daa952ba7f163c4a11628f55a4df523b3ef",
            "0x0000000000000000000000001a2115173c31fa8e6a598a8a40671df4c2c99680",
            "0x000000000000000000000000fbb0621e0b23b5478b630bd55a5f21f67730b0f1"
          ],
          "data": "0x00000000000000000000000000000000000000000000003635c9adc5dea00000",
          "blockHash": "0x6e159d16d719e125f4b97d400591ca630283dd6ad3294d26a35077371b209d23",
          "blockNumber": "0x96ebec",
          "blockTimestamp": "0x6948d2a8",
          "transactionHash": "0x95a17edc3af8ed01f8adab896ec1cef25c1c2435866e26c2faaf2f256767026b",
          "transactionIndex": "0x64",
          "logIndex": "0x11a",
          "removed": false
        },
        {
          "address": "0xfbb0621e0b23b5478b630bd55a5f21f67730b0f1",
          "topics": [
            "0x718594027abd4eaed59f95162563e0cc6d0e8d5b86b1c7be8b1b0ac3343d0396",
            "0x000000000000000000000000f96b35b3366d5459cdf7462bcd754d8cc5faa454",
            "0x000000000000000000000000e6df762abb5990d11872409db6a80904ca1e35d8",
            "0x0000000000000000000000001a2115173c31fa8e6a598a8a40671df4c2c99680"
          ],
          "data": "0x0000000000000000000000001804c8ab1f12e6bbf3894d4083f33e07309d1f3800000000000000000000000000000000000000000000003635c9adc5dea0000000000000000000000000000000000000000000000000000000000000000000600000000000000000000000000000000000000000000000000000000000000000",
          "blockHash": "0x6e159d16d719e125f4b97d400591ca630283dd6ad3294d26a35077371b209d23",
          "blockNumber": "0x96ebec",
          "blockTimestamp": "0x6948d2a8",
          "transactionHash": "0x95a17edc3af8ed01f8adab896ec1cef25c1c2435866e26c2faaf2f256767026b",
          "transactionIndex": "0x64",
          "logIndex": "0x11b",
          "removed": false
        },
        {
          "address": "0xfbb0621e0b23b5478b630bd55a5f21f67730b0f1",
          "topics": [
            "0x7ff126db8024424bbfd9826e8ab82ff59136289ea440b04b39a0df1b03b9cabf",
            "0x000000000000000000000000f96b35b3366d5459cdf7462bcd754d8cc5faa454",
            "0x000000000000000000000000e6df762abb5990d11872409db6a80904ca1e35d8",
            "0x0000000000000000000000001a2115173c31fa8e6a598a8a40671df4c2c99680"
          ],
          "data": "0x0000000000000000000000001804c8ab1f12e6bbf3894d4083f33e07309d1f3800000000000000000000000000000000000000000000003635c9adc5dea0000000000000000000000000000000000000000000000000000000000000000000600000000000000000000000000000000000000000000000000000000000000000",
          "blockHash": "0x6e159d16d719e125f4b97d400591ca630283dd6ad3294d26a35077371b209d23",
          "blockNumber": "0x96ebec",
          "blockTimestamp": "0x6948d2a8",
          "transactionHash": "0x95a17edc3af8ed01f8adab896ec1cef25c1c2435866e26c2faaf2f256767026b",
          "transactionIndex": "0x64",
          "logIndex": "0x11c",
          "removed": false
        },
        {
          "address": "0x16fc5058f25648194471939df75cf27a2fdc48bc",
          "topics": [
            "0xb3813568d9991fc951961fcb4c784893574240a28925604d09fc577c55bb7c32",
            "0x00000000000000000000000069dd85b8d04ea49cc6dbd3cbffd00b4b8d6cc500",
            "0x0000000000000000000000004200000000000000000000000000000000000007",
            "0x0000000000000000000000000000000000000000000000000000000000000000"
          ],
          "data": "0x0000000000000000000000000000000000000000000000000000000000000020000000000000000000000000000000000000000000000000000000000000022d00000000000000000000000000000000000000000000000000000000000000000000000000000000000000000000000000000000000000000000000000000000000000000007e37600d764ad0b000100000000000000000000000000000000000000000000000000000005969c000000000000000000000000fbb0621e0b23b5478b630bd55a5f21f67730b0f1000000000000000000000000420000000000000000000000000000000000001000000000000000000000000000000000000000000000000000000000000000000000000000000000000000000000000000000000000000000000000000030d4000000000000000000000000000000000000000000000000000000000000000c000000000000000000000000000000000000000000000000000000000000000e40166a07a000000000000000000000000e6df762abb5990d11872409db6a80904ca1e35d8000000000000000000000000f96b35b3366d5459cdf7462bcd754d8cc5faa4540000000000000000000000001a2115173c31fa8e6a598a8a40671df4c2c996800000000000000000000000001804c8ab1f12e6bbf3894d4083f33e07309d1f3800000000000000000000000000000000000000000000003635c9adc5dea0000000000000000000000000000000000000000000000000000000000000000000c000000000000000000000000000000000000000000000000000000000000000000000000000000000000000000000000000000000000000000000000000000000000000000000000000000000000000",
          "blockHash": "0x6e159d16d719e125f4b97d400591ca630283dd6ad3294d26a35077371b209d23",
          "blockNumber": "0x96ebec",
          "blockTimestamp": "0x6948d2a8",
          "transactionHash": "0x95a17edc3af8ed01f8adab896ec1cef25c1c2435866e26c2faaf2f256767026b",
          "transactionIndex": "0x64",
          "logIndex": "0x11d",
          "removed": false
        },
        {
          "address": "0x58cc85b8d04ea49cc6dbd3cbffd00b4b8d6cb3ef",
          "topics": [
            "0xcb0f7ffd78f9aee47a248fae8db181db6eee833039123e026dcbff529522e52a",
            "0x0000000000000000000000004200000000000000000000000000000000000010"
          ],
          "data": "0x000000000000000000000000fbb0621e0b23b5478b630bd55a5f21f67730b0f10000000000000000000000000000000000000000000000000000000000000080000100000000000000000000000000000000000000000000000000000005969c0000000000000000000000000000000000000000000000000000000000030d4000000000000000000000000000000000000000000000000000000000000000e40166a07a000000000000000000000000e6df762abb5990d11872409db6a80904ca1e35d8000000000000000000000000f96b35b3366d5459cdf7462bcd754d8cc5faa4540000000000000000000000001a2115173c31fa8e6a598a8a40671df4c2c996800000000000000000000000001804c8ab1f12e6bbf3894d4083f33e07309d1f3800000000000000000000000000000000000000000000003635c9adc5dea0000000000000000000000000000000000000000000000000000000000000000000c0000000000000000000000000000000000000000000000000000000000000000000000000000000000000000000000000000000000000000000000000",
          "blockHash": "0x6e159d16d719e125f4b97d400591ca630283dd6ad3294d26a35077371b209d23",
          "blockNumber": "0x96ebec",
          "blockTimestamp": "0x6948d2a8",
          "transactionHash": "0x95a17edc3af8ed01f8adab896ec1cef25c1c2435866e26c2faaf2f256767026b",
          "transactionIndex": "0x64",
          "logIndex": "0x11e",
          "removed": false
        },
        {
          "address": "0x58cc85b8d04ea49cc6dbd3cbffd00b4b8d6cb3ef",
          "topics": [
            "0x8ebb2ec2465bdb2a06a66fc37a0963af8a2a6a1479d81d56fdb8cbb98096d546",
            "0x000000000000000000000000fbb0621e0b23b5478b630bd55a5f21f67730b0f1"
          ],
          "data": "0x0000000000000000000000000000000000000000000000000000000000000000",
          "blockHash": "0x6e159d16d719e125f4b97d400591ca630283dd6ad3294d26a35077371b209d23",
          "blockNumber": "0x96ebec",
          "blockTimestamp": "0x6948d2a8",
          "transactionHash": "0x95a17edc3af8ed01f8adab896ec1cef25c1c2435866e26c2faaf2f256767026b",
          "transactionIndex": "0x64",
          "logIndex": "0x11f",
          "removed": false
        }
      ],
      "logsBloom": "0x0000000000004000001000000400000000000000100000000000000000000000000000090002010000000000000400804000000000004008200010000000000100040000000000084000000a00000000040000000000000040000000008100000000000002000000100000000000080000080000000000000000001400000000120000000000100000000000000000100000000000000000000100000040000002000000000000000000800000000040000000000000000008000000000000000000000200004000000000000802000000000000000000000004000000002000000000009000000000000040a000000000000000080000000000000000000400",
      "type": "0x2",
      "transactionHash": "0x95a17edc3af8ed01f8adab896ec1cef25c1c2435866e26c2faaf2f256767026b",
      "transactionIndex": "0x64",
      "blockHash": "0x6e159d16d719e125f4b97d400591ca630283dd6ad3294d26a35077371b209d23",
      "blockNumber": "0x96ebec",
      "gasUsed": "0xa4023",
      "effectiveGasPrice": "0xf424f",
      "from": "0x1a2115173c31fa8e6a598a8a40671df4c2c99680",
      "to": "0xfbb0621e0b23b5478b630bd55a5f21f67730b0f1",
      "contractAddress": null
    }
  ],
  "libraries": [],
  "pending": [],
  "returns": {},
  "timestamp": 1766380202409,
  "chain": 11155111,
  "commit": null
}