{
  "transactions": [
    {
      "hash": "0xb7e4b34503dcf415ec583302a2f9da74c9017dcbd8e0f2652db7891158fb9627",
      "transactionType": "CALL",
      "contractName": "MyToken",
      "contractAddress": "0xf96b35b3366d5459cdf7462bcd754d8cc5faa454",
      "function": "approve(address,uint256)",
      "arguments": [
        "0xFBb0621E0B23b5478B630BD55a5f21f67730B0F1",
        "100000000000000000000"
      ],
      "transaction": {
        "from": "0x1a2115173c31fa8e6a598a8a40671df4c2c99680",
        "to": "0xf96b35b3366d5459cdf7462bcd754d8cc5faa454",
        "gas": "0x91e5",
        "value": "0x0",
        "input": "0x095ea7b3000000000000000000000000fbb0621e0b23b5478b630bd55a5f21f67730b0f10000000000000000000000000000000000000000000000056bc75e2d63100000",
        "nonce": "0x9",
        "chainId": "0xaa36a7"
      },
      "additionalContracts": [],
      "isFixedGasLimit": false
    },
    {
      "hash": "0x0a9e3c5cb695731470428813a4e34141d5df16d26bef86a096bd8cb5819ad76d",
      "transactionType": "CALL",
      "contractName": null,
      "contractAddress": "0xfbb0621e0b23b5478b630bd55a5f21f67730b0f1",
      "function": "bridgeERC20To(address,address,address,uint256,uint32,bytes)",
      "arguments": [
        "0xf96b35b3366d5459cDf7462bcd754D8CC5faa454",
        "0xE6Df762aBb5990d11872409db6A80904cA1e35D8",
        "0x1A2115173c31Fa8E6a598a8a40671Df4c2C99680",
        "100000000000000000000",
        "200000",
        "0x"
      ],
      "transaction": {
        "from": "0x1a2115173c31fa8e6a598a8a40671df4c2c99680",
        "to": "0xfbb0621e0b23b5478b630bd55a5f21f67730b0f1",
        "gas": "0xe3a6a",
        "value": "0x0",
        "input": "0x540abf73000000000000000000000000f96b35b3366d5459cdf7462bcd754d8cc5faa454000000000000000000000000e6df762abb5990d11872409db6a80904ca1e35d80000000000000000000000001a2115173c31fa8e6a598a8a40671df4c2c996800000000000000000000000000000000000000000000000056bc75e2d631000000000000000000000000000000000000000000000000000000000000000030d4000000000000000000000000000000000000000000000000000000000000000c00000000000000000000000000000000000000000000000000000000000000000",
        "nonce": "0xa",
        "chainId": "0xaa36a7"
      },
      "additionalContracts": [],
      "isFixedGasLimit": false
    }
  ],
  "receipts": [
    {
      "status": "0x1",
      "cumulativeGasUsed": "0xdd03ee",
      "logs": [
        {
          "address": "0xf96b35b3366d5459cdf7462bcd754d8cc5faa454",
          "topics": [
            "0x8c5be1e5ebec7d5bd14f71427d1e84f3dd0314c0f7b2291e5b200ac8c7c3b925",
            "0x0000000000000000000000001a2115173c31fa8e6a598a8a40671df4c2c99680",
            "0x000000000000000000000000fbb0621e0b23b5478b630bd55a5f21f67730b0f1"
          ],
          "data": "0x0000000000000000000000000000000000000000000000056bc75e2d63100000",
          "blockHash": "0xa72c55f11854651baa019751409490ace9645fc8a19a50022af8cc1311837d27",
          "blockNumber": "0x9701ea",
          "blockTimestamp": "0x6949fcec",
          "transactionHash": "0x0a9e3c5cb695731470428813a4e34141d5df16d26bef86a096bd8cb5819ad76d",
          "transactionIndex": "0x3e",
          "logIndex": "0x17e",
          "removed": false
        }
      ],
      "logsBloom": "0x00000000000000000000000000000000000000000000000000000000000000000000000800000000000000000000000000000000000040000000000000200000000000000000000800000000000000000000000000000000000000000000000000000000000000001000000000000000000000000000000000000004000000000000000000001000000000000000000000000000000000000000000000000000020000000000000000000000000000400000000000000000000000000000000000000000000040000000000000000000000000000000000000000000000000000010000080000000000000000000000000000000000000000000000000000000",
      "type": "0x2",
      "transactionHash": "0x0a9e3c5cb695731470428813a4e34141d5df16d26bef86a096bd8cb5819ad76d",
      "transactionIndex": "0x3e",
      "blockHash": "0xa72c55f11854651baa019751409490ace9645fc8a19a50022af8cc1311837d27",
      "blockNumber": "0x9701ea",
      "gasUsed": "0x69a0",
      "effectiveGasPrice": "0x360cc6",
      "from": "0x1a2115173c31fa8e6a598a8a40671df4c2c99680",
      "to": "0xf96b35b3366d5459cdf7462bcd754d8cc5faa454",
      "contractAddress": null
    },
    {
      "status": "0x1",
      "cumulativeGasUsed": "0xe6be79",
      "logs": [
        {
          "address": "0xf96b35b3366d5459cdf7462bcd754d8cc5faa454",
          "topics": [
            "0xddf252ad1be2c89b69c2b068fc378daa952ba7f163c4a11628f55a4df523b3ef",
            "0x0000000000000000000000001a2115173c31fa8e6a598a8a40671df4c2c99680",
            "0x000000000000000000000000fbb0621e0b23b5478b630bd55a5f21f67730b0f1"
          ],
          "data": "0x0000000000000000000000000000000000000000000000056bc75e2d63100000",
          "blockHash": "0xa72c55f11854651baa019751409490ace9645fc8a19a50022af8cc1311837d27",
          "blockNumber": "0x9701ea",
          "blockTimestamp": "0x6949fcec",
          "transactionHash": "0xb7e4b34503dcf415ec583302a2f9da74c9017dcbd8e0f2652db7891158fb9627",
          "transactionIndex": "0x3f",
          "logIndex": "0x17f",
          "removed": false
        },
        {
          "address": "0xfbb0621e0b23b5478b630bd55a5f21f67730b0f1",
          "topics": [
            "0x718594027abd4eaed59f95162563e0cc6d0e8d5b86b1c7be8b1b0ac3343d0396",
            "0x000000000000000000000000f96b35b3366d5459cdf7462bcd754d8cc5faa454",
            "0x000000000000000000000000e6df762abb5990d11872409db6a80904ca1e35d8",
            "0x0000000000000000000000001a2115173c31fa8e6a598a8a40671df4c2c99680"
          ],
          "data": "0x0000000000000000000000001a2115173c31fa8e6a598a8a40671df4c2c996800000000000000000000000000000000000000000000000056bc75e2d6310000000000000000000000000000000000000000000000000000000000000000000600000000000000000000000000000000000000000000000000000000000000000",
          "blockHash": "0xa72c55f11854651baa019751409490ace9645fc8a19a50022af8cc1311837d27",
          "blockNumber": "0x9701ea",
          "blockTimestamp": "0x6949fcec",
          "transactionHash": "0xb7e4b34503dcf415ec583302a2f9da74c9017dcbd8e0f2652db7891158fb9627",
          "transactionIndex": "0x3f",
          "logIndex": "0x180",
          "removed": false
        },
        {
          "address": "0xfbb0621e0b23b5478b630bd55a5f21f67730b0f1",
          "topics": [
            "0x7ff126db8024424bbfd9826e8ab82ff59136289ea440b04b39a0df1b03b9cabf",
            "0x000000000000000000000000f96b35b3366d5459cdf7462bcd754d8cc5faa454",
            "0x000000000000000000000000e6df762abb5990d11872409db6a80904ca1e35d8",
            "0x0000000000000000000000001a2115173c31fa8e6a598a8a40671df4c2c99680"
          ],
          "data": "0x0000000000000000000000001a2115173c31fa8e6a598a8a40671df4c2c996800000000000000000000000000000000000000000000000056bc75e2d6310000000000000000000000000000000000000000000000000000000000000000000600000000000000000000000000000000000000000000000000000000000000000",
          "blockHash": "0xa72c55f11854651baa019751409490ace9645fc8a19a50022af8cc1311837d27",
          "blockNumber": "0x9701ea",
          "blockTimestamp": "0x6949fcec",
          "transactionHash": "0xb7e4b34503dcf415ec583302a2f9da74c9017dcbd8e0f2652db7891158fb9627",
          "transactionIndex": "0x3f",
          "logIndex": "0x181",
          "removed": false
        },
        {
          "address": "0x16fc5058f25648194471939df75cf27a2fdc48bc",
          "topics": [
            "0xb3813568d9991fc951961fcb4c784893574240a28925604d09fc577c55bb7c32",
            "0x00000000000000000000000069dd85b8d04ea49cc6dbd3cbffd00b4b8d6cc500",
            "0x0000000000000000000000004200000000000000000000000000000000000007",
            "0x0000000000000000000000000000000000000000000000000000000000000000"
          ],
          "data": "0x0000000000000000000000000000000000000000000000000000000000000020000000000000000000000000000000000000000000000000000000000000022d00000000000000000000000000000000000000000000000000000000000000000000000000000000000000000000000000000000000000000000000000000000000000000007e37600d764ad0b00010000000000000000000000000000000000000000000000000000000596be000000000000000000000000fbb0621e0b23b5478b630bd55a5f21f67730b0f1000000000000000000000000420000000000000000000000000000000000001000000000000000000000000000000000000000000000000000000000000000000000000000000000000000000000000000000000000000000000000000030d4000000000000000000000000000000000000000000000000000000000000000c000000000000000000000000000000000000000000000000000000000000000e40166a07a000000000000000000000000e6df762abb5990d11872409db6a80904ca1e35d8000000000000000000000000f96b35b3366d5459cdf7462bcd754d8cc5faa4540000000000000000000000001a2115173c31fa8e6a598a8a40671df4c2c996800000000000000000000000001a2115173c31fa8e6a598a8a40671df4c2c996800000000000000000000000000000000000000000000000056bc75e2d6310000000000000000000000000000000000000000000000000000000000000000000c000000000000000000000000000000000000000000000000000000000000000000000000000000000000000000000000000000000000000000000000000000000000000000000000000000000000000",
          "blockHash": "0xa72c55f11854651baa019751409490ace9645fc8a19a50022af8cc1311837d27",
          "blockNumber": "0x9701ea",
          "blockTimestamp": "0x6949fcec",
          "transactionHash": "0xb7e4b34503dcf415ec583302a2f9da74c9017dcbd8e0f2652db7891158fb9627",
          "transactionIndex": "0x3f",
          "logIndex": "0x182",
          "removed": false
        },
        {
          "address": "0x58cc85b8d04ea49cc6dbd3cbffd00b4b8d6cb3ef",
          "topics": [
            "0xcb0f7ffd78f9aee47a248fae8db181db6eee833039123e026dcbff529522e52a",
            "0x0000000000000000000000004200000000000000000000000000000000000010"
          ],
          "data": "0x000000000000000000000000fbb0621e0b23b5478b630bd55a5f21f67730b0f1000000000000000000000000000000000000000000000000000000000000008000010000000000000000000000000000000000000000000000000000000596be0000000000000000000000000000000000000000000000000000000000030d4000000000000000000000000000000000000000000000000000000000000000e40166a07a000000000000000000000000e6df762abb5990d11872409db6a80904ca1e35d8000000000000000000000000f96b35b3366d5459cdf7462bcd754d8cc5faa4540000000000000000000000001a2115173c31fa8e6a598a8a40671df4c2c996800000000000000000000000001a2115173c31fa8e6a598a8a40671df4c2c996800000000000000000000000000000000000000000000000056bc75e2d6310000000000000000000000000000000000000000000000000000000000000000000c0000000000000000000000000000000000000000000000000000000000000000000000000000000000000000000000000000000000000000000000000",
          "blockHash": "0xa72c55f11854651baa019751409490ace9645fc8a19a50022af8cc1311837d27",
          "blockNumber": "0x9701ea",
          "blockTimestamp": "0x6949fcec",
          "transactionHash": "0xb7e4b34503dcf415ec583302a2f9da74c9017dcbd8e0f2652db7891158fb9627",
          "transactionIndex": "0x3f",
          "logIndex": "0x183",
          "removed": false
        },
        {
          "address": "0x58cc85b8d04ea49cc6dbd3cbffd00b4b8d6cb3ef",
          "topics": [
            "0x8ebb2ec2465bdb2a06a66fc37a0963af8a2a6a1479d81d56fdb8cbb98096d546",
            "0x000000000000000000000000fbb0621e0b23b5478b630bd55a5f21f67730b0f1"
          ],
          "data": "0x0000000000000000000000000000000000000000000000000000000000000000",
          "blockHash": "0xa72c55f11854651baa019751409490ace9645fc8a19a50022af8cc1311837d27",
          "blockNumber": "0x9701ea",
          "blockTimestamp": "0x6949fcec",
          "transactionHash": "0xb7e4b34503dcf415ec583302a2f9da74c9017dcbd8e0f2652db7891158fb9627",
          "transactionIndex": "0x3f",
          "logIndex": "0x184",
          "removed": false
        }
      ],
      "logsBloom": "0x0000000000004000001000000400000000000000100000000000000000000000000000090002010000000000000400804000000000004008200010000000000100040000000000084000000a00000000040000000000000040000000008100000000000002000000100000000000080000080000000000000000001400000000120000000000100000000000000000100000000000000000000100000040000002000000000000000000800000000040000000000000000008000000000000000000000200004000000000000802000000000000000000000004000000002000000000009000000000000040a000000000000000080000000000000000000400",
      "type": "0x2",
      "transactionHash": "0xb7e4b34503dcf415ec583302a2f9da74c9017dcbd8e0f2652db7891158fb9627",
      "transactionIndex": "0x3f",
      "blockHash": "0xa72c55f11854651baa019751409490ace9645fc8a19a50022af8cc1311837d27",
      "blockNumber": "0x9701ea",
      "gasUsed": "0x9ba8b",
      "effectiveGasPrice": "0x360cc6",
      "from": "0x1a2115173c31fa8e6a598a8a40671df4c2c99680",
      "to": "0xfbb0621e0b23b5478b630bd55a5f21f67730b0f1",
      "contractAddress": null
    }
  ],
  "libraries": [],
  "pending": [],
  "returns": {},
  "timestamp": 1766456557869,
  "chain": 11155111,
  "commit": null
}