{
  "transactions": [
    {
      "hash": "0x2eaa74fa01650de424fbbf303f0423d12eeef39d44dc4cab33f1c2114120d405",
      "transactionType": "CALL",
      "contractName": null,
      "contractAddress": "0xe6df762abb5990d11872409db6a80904ca1e35d8",
      "function": "approve(address,uint256)",
      "arguments": [
        "0x4200000000000000000000000000000000000010",
        "10000000000000000000"
      ],
      "transaction": {
        "from": "0x1a2115173c31fa8e6a598a8a40671df4c2c99680",
        "to": "0xe6df762abb5990d11872409db6a80904ca1e35d8",
        "gas": "0x106f2",
        "value": "0x0",
        "input": "0x095ea7b300000000000000000000000042000000000000000000000000000000000000100000000000000000000000000000000000000000000000008ac7230489e80000",
        "nonce": "0x1",
        "chainId": "0xaa37dc"
      },
      "additionalContracts": [],
      "isFixedGasLimit": false
    },
    {
      "hash": "0x31bbbaebde48b495f51f1367f6059133df1e2fc764e7b813276bb4ae0dcccb9a",
      "transactionType": "CALL",
      "contractName": null,
      "contractAddress": "0x4200000000000000000000000000000000000010",
      "function": "withdraw(address,uint256,uint32,bytes)",
      "arguments": [
        "0xE6Df762aBb5990d11872409db6A80904cA1e35D8",
        "10000000000000000000",
        "200000",
        "0x"
      ],
      "transaction": {
        "from": "0x1a2115173c31fa8e6a598a8a40671df4c2c99680",
        "to": "0x4200000000000000000000000000000000000010",
        "gas": "0x2f39d",
        "value": "0x0",
        "input": "0x32b7006d000000000000000000000000e6df762abb5990d11872409db6a80904ca1e35d80000000000000000000000000000000000000000000000008ac7230489e800000000000000000000000000000000000000000000000000000000000000030d4000000000000000000000000000000000000000000000000000000000000000800000000000000000000000000000000000000000000000000000000000000000",
        "nonce": "0x2",
        "chainId": "0xaa37dc"
      },
      "additionalContracts": [],
      "isFixedGasLimit": false
    }
  ],
  "receipts": [
    {
      "status": "0x1",
      "cumulativeGasUsed": "0x16819",
      "logs": [
        {
          "address": "0xe6df762abb5990d11872409db6a80904ca1e35d8",
          "topics": [
            "0x8c5be1e5ebec7d5bd14f71427d1e84f3dd0314c0f7b2291e5b200ac8c7c3b925",
            "0x0000000000000000000000001a2115173c31fa8e6a598a8a40671df4c2c99680",
            "0x0000000000000000000000004200000000000000000000000000000000000010"
          ],
          "data": "0x0000000000000000000000000000000000000000000000008ac7230489e80000",
          "blockHash": "0xc4f9e7794e60e3497de17273b0260461e13e4ba5064259fcfa6a5dd24981a3af",
          "blockNumber": "0x23d9cbe",
          "blockTimestamp": "0x69521528",
          "transactionHash": "0x2eaa74fa01650de424fbbf303f0423d12eeef39d44dc4cab33f1c2114120d405",
          "transactionIndex": "0x1",
          "logIndex": "0x0",
          "removed": false
        }
      ],
      "logsBloom": "0x00000000000040000000000000000000000000000000000000000000000000000000000800000000000000000000000000000000000040000000000000248000000000000000000000000000000000000000000000000000000000000000000000000000000000000000000000000000000000000000000000000000000000000200000000000000004000000000000000000000000000000001000000000000020000000000000000000000000000000000000000000000000000000000000000000000000040000000000000000000000000000000000000000000000000000010000000000000000000000000000000000000000000000000000000000000",
      "type": "0x2",
      "transactionHash": "0x2eaa74fa01650de424fbbf303f0423d12eeef39d44dc4cab33f1c2114120d405",
      "transactionIndex": "0x1",
      "blockHash": "0xc4f9e7794e60e3497de17273b0260461e13e4ba5064259fcfa6a5dd24981a3af",
      "blockNumber": "0x23d9cbe",
      "gasUsed": "0xb3cb",
      "effectiveGasPrice": "0xf433a",
      "blobGasUsed": "0x9c40",
      "from": "0x1a2115173c31fa8e6a598a8a40671df4c2c99680",
      "to": "0xe6df762abb5990d11872409db6a80904ca1e35d8",
      "contractAddress": null,
      "daFootprintGasScalar": "0x190",
      "l1BaseFeeScalar": "0x1db0",
      "l1BlobBaseFee": "0x1f3",
      "l1BlobBaseFeeScalar": "0xd2730",
      "l1Fee": "0xb06e",
      "l1GasPrice": "0xb1",
      "l1GasUsed": "0x640"
    },
    {
      "status": "0x1",
      "cumulativeGasUsed": "0x36cc2",
      "logs": [
        {
          "address": "0xe6df762abb5990d11872409db6a80904ca1e35d8",
          "topics": [
            "0xddf252ad1be2c89b69c2b068fc378daa952ba7f163c4a11628f55a4df523b3ef",
            "0x0000000000000000000000001a2115173c31fa8e6a598a8a40671df4c2c99680",
            "0x0000000000000000000000000000000000000000000000000000000000000000"
          ],
          "data": "0x0000000000000000000000000000000000000000000000008ac7230489e80000",
          "blockHash": "0xc4f9e7794e60e3497de17273b0260461e13e4ba5064259fcfa6a5dd24981a3af",
          "blockNumber": "0x23d9cbe",
          "blockTimestamp": "0x69521528",
          "transactionHash": "0x31bbbaebde48b495f51f1367f6059133df1e2fc764e7b813276bb4ae0dcccb9a",
          "transactionIndex": "0x2",
          "logIndex": "0x1",
          "removed": false
        },
        {
          "address": "0xe6df762abb5990d11872409db6a80904ca1e35d8",
          "topics": [
            "0xcc16f5dbb4873280815c1ee09dbd06736cffcc184412cf7a71a0fdb75d397ca5",
            "0x0000000000000000000000001a2115173c31fa8e6a598a8a40671df4c2c99680"
          ],
          "data": "0x0000000000000000000000000000000000000000000000008ac7230489e80000",
          "blockHash": "0xc4f9e7794e60e3497de17273b0260461e13e4ba5064259fcfa6a5dd24981a3af",
          "blockNumber": "0x23d9cbe",
          "blockTimestamp": "0x69521528",
          "transactionHash": "0x31bbbaebde48b495f51f1367f6059133df1e2fc764e7b813276bb4ae0dcccb9a",
          "transactionIndex": "0x2",
          "logIndex": "0x2",
          "removed": false
        },
        {
          "address": "0x4200000000000000000000000000000000000010",
          "topics": [
            "0x73d170910aba9e6d50b102db522b1dbcd796216f5128b445aa2135272886497e",
            "0x000000000000000000000000f96b35b3366d5459cdf7462bcd754d8cc5faa454",
            "0x000000000000000000000000e6df762abb5990d11872409db6a80904ca1e35d8",
            "0x0000000000000000000000001a2115173c31fa8e6a598a8a40671df4c2c99680"
          ],
          "data": "0x0000000000000000000000001a2115173c31fa8e6a598a8a40671df4c2c996800000000000000000000000000000000000000000000000008ac7230489e8000000000000000000000000000000000000000000000000000000000000000000600000000000000000000000000000000000000000000000000000000000000000",
          "blockHash": "0xc4f9e7794e60e3497de17273b0260461e13e4ba5064259fcfa6a5dd24981a3af",
          "blockNumber": "0x23d9cbe",
          "blockTimestamp": "0x69521528",
          "transactionHash": "0x31bbbaebde48b495f51f1367f6059133df1e2fc764e7b813276bb4ae0dcccb9a",
          "transactionIndex": "0x2",
          "logIndex": "0x3",
          "removed": false
        },
        {
          "address": "0x4200000000000000000000000000000000000010",
          "topics": [
            "0x7ff126db8024424bbfd9826e8ab82ff59136289ea440b04b39a0df1b03b9cabf",
            "0x000000000000000000000000e6df762abb5990d11872409db6a80904ca1e35d8",
            "0x000000000000000000000000f96b35b3366d5459cdf7462bcd754d8cc5faa454",
            "0x0000000000000000000000001a2115173c31fa8e6a598a8a40671df4c2c99680"
          ],
          "data": "0x0000000000000000000000001a2115173c31fa8e6a598a8a40671df4c2c996800000000000000000000000000000000000000000000000008ac7230489e8000000000000000000000000000000000000000000000000000000000000000000600000000000000000000000000000000000000000000000000000000000000000",
          "blockHash": "0xc4f9e7794e60e3497de17273b0260461e13e4ba5064259fcfa6a5dd24981a3af",
          "blockNumber": "0x23d9cbe",
          "blockTimestamp": "0x69521528",
          "transactionHash": "0x31bbbaebde48b495f51f1367f6059133df1e2fc764e7b813276bb4ae0dcccb9a",
          "transactionIndex": "0x2",
          "logIndex": "0x4",
          "removed": false
        },
        {
          "address": "0x4200000000000000000000000000000000000016",
          "topics": [
            "0x02a52367d10742d8032712c1bb8e0144ff1ec5ffda1ed7d70bb05a2744955054",
            "0x000100000000000000000000000000000000000000000000000000000000639f",
            "0x0000000000000000000000004200000000000000000000000000000000000007",
            "0x00000000000000000000000058cc85b8d04ea49cc6dbd3cbffd00b4b8d6cb3ef"
          ],
          "data": "0x0000000000000000000000000000000000000000000000000000000000000000000000000000000000000000000000000000000000000000000000000007812e00000000000000000000000000000000000000000000000000000000000000802c88c1a5b09d610e6e7f35b338626c780d69cccc55c99d1a591afcef452d01b500000000000000000000000000000000000000000000000000000000000001e4d764ad0b000100000000000000000000000000000000000000000000000000000000626d0000000000000000000000004200000000000000000000000000000000000010000000000000000000000000fbb0621e0b23b5478b630bd55a5f21f67730b0f100000000000000000000000000000000000000000000000000000000000000000000000000000000000000000000000000000000000000000000000000030d4000000000000000000000000000000000000000000000000000000000000000c000000000000000000000000000000000000000000000000000000000000000e40166a07a000000000000000000000000f96b35b3366d5459cdf7462bcd754d8cc5faa454000000000000000000000000e6df762abb5990d11872409db6a80904ca1e35d80000000000000000000000001a2115173c31fa8e6a598a8a40671df4c2c996800000000000000000000000001a2115173c31fa8e6a598a8a40671df4c2c996800000000000000000000000000000000000000000000000008ac7230489e8000000000000000000000000000000000000000000000000000000000000000000c000000000000000000000000000000000000000000000000000000000000000000000000000000000000000000000000000000000000000000000000000000000000000000000000000000000000000000000000000000000",
          "blockHash": "0xc4f9e7794e60e3497de17273b0260461e13e4ba5064259fcfa6a5dd24981a3af",
          "blockNumber": "0x23d9cbe",
          "blockTimestamp": "0x69521528",
          "transactionHash": "0x31bbbaebde48b495f51f1367f6059133df1e2fc764e7b813276bb4ae0dcccb9a",
          "transactionIndex": "0x2",
          "logIndex": "0x5",
          "removed": false
        },
        {
          "address": "0x4200000000000000000000000000000000000007",
          "topics": [
            "0xcb0f7ffd78f9aee47a248fae8db181db6eee833039123e026dcbff529522e52a",
            "0x000000000000000000000000fbb0621e0b23b5478b630bd55a5f21f67730b0f1"
          ],
          "data": "0x00000000000000000000000042000000000000000000000000000000000000100000000000000000000000000000000000000000000000000000000000000080000100000000000000000000000000000000000000000000000000000000626d0000000000000000000000000000000000000000000000000000000000030d4000000000000000000000000000000000000000000000000000000000000000e40166a07a000000000000000000000000f96b35b3366d5459cdf7462bcd754d8cc5faa454000000000000000000000000e6df762abb5990d11872409db6a80904ca1e35d80000000000000000000000001a2115173c31fa8e6a598a8a40671df4c2c996800000000000000000000000001a2115173c31fa8e6a598a8a40671df4c2c996800000000000000000000000000000000000000000000000008ac7230489e8000000000000000000000000000000000000000000000000000000000000000000c0000000000000000000000000000000000000000000000000000000000000000000000000000000000000000000000000000000000000000000000000",
          "blockHash": "0xc4f9e7794e60e3497de17273b0260461e13e4ba5064259fcfa6a5dd24981a3af",
          "blockNumber": "0x23d9cbe",
          "blockTimestamp": "0x69521528",
          "transactionHash": "0x31bbbaebde48b495f51f1367f6059133df1e2fc764e7b813276bb4ae0dcccb9a",
          "transactionIndex": "0x2",
          "logIndex": "0x6",
          "removed": false
        },
        {
          "address": "0x4200000000000000000000000000000000000007",
          "topics": [
            "0x8ebb2ec2465bdb2a06a66fc37a0963af8a2a6a1479d81d56fdb8cbb98096d546",
            "0x0000000000000000000000004200000000000000000000000000000000000010"
          ],
          "data": "0x0000000000000000000000000000000000000000000000000000000000000000",
          "blockHash": "0xc4f9e7794e60e3497de17273b0260461e13e4ba5064259fcfa6a5dd24981a3af",
          "blockNumber": "0x23d9cbe",
          "blockTimestamp": "0x69521528",
          "transactionHash": "0x31bbbaebde48b495f51f1367f6059133df1e2fc764e7b813276bb4ae0dcccb9a",
          "transactionIndex": "0x2",
          "logIndex": "0x7",
          "removed": false
        }
      ],
      "logsBloom": "0x00000000000040000010000000000000000000001000001000100000001000000000000800020080000000000004008004000000000040000000100000048001000400000000000040000008000000000400000000000000000800040000000000000000020000000000000000000800880800000000000000000014000000080200000000001000004000000000001000800000000000000001000000200000000000002000000001008000400000400000200000000000000000000000000000000002000040000000800408020000000002100000000000040000000020000000000000400000000104408000000000000000000000000000000000000000",
      "type": "0x2",
      "transactionHash": "0x31bbbaebde48b495f51f1367f6059133df1e2fc764e7b813276bb4ae0dcccb9a",
      "transactionIndex": "0x2",
      "blockHash": "0xc4f9e7794e60e3497de17273b0260461e13e4ba5064259fcfa6a5dd24981a3af",
      "blockNumber": "0x23d9cbe",
      "gasUsed": "0x204a9",
      "effectiveGasPrice": "0xf433a",
      "blobGasUsed": "0x9c40",
      "from": "0x1a2115173c31fa8e6a598a8a40671df4c2c99680",
      "to": "0x4200000000000000000000000000000000000010",
      "contractAddress": null,
      "daFootprintGasScalar": "0x190",
      "l1BaseFeeScalar": "0x1db0",
      "l1BlobBaseFee": "0x1f3",
      "l1BlobBaseFeeScalar": "0xd2730",
      "l1Fee": "0xb06e",
      "l1GasPrice": "0xb1",
      "l1GasUsed": "0x640"
    }
  ],
  "libraries": [],
  "pending": [],
  "returns": {},
  "timestamp": 1766987048575,
  "chain": 11155420,
  "commit": null
}